:0400000033EF10F0DA
:100F000000EC20009A20008A2000BE14004C16003D
:100F1000E02000CC19003A21003221002A210022D1
:100F200021001A21001221000A2100D42000B61A43
:100F3000000A53656E736F722074656D7020726560
:100F40006164696E67202843656C73697573293A1B
:100F50002025752020202020000000018FBFB3EF46
:100F600007F0B5EF07F0B6EF07F090938FBFC3EF30
:100F700007F08F5106E18E05D8B0C1EF07F0C3EF3F
:100F800007F0C9EF07F0000E316E010E306ECDEFA5
:100F900007F08EC030F08FC031F08CC032F08DC0C1
:100FA00033F020C034F021C035F022C036F023C029
:100FB00037F024C038F025C039F026C03AF027C0F9
:100FC0003BF0000E3D6E1F0E3C6E000EB26F5FEFE9
:100FD00008F03C06D8A03D06930E3C24D96E000EC6
:100FE0003D20DA6E34C001F035C002F036C003F0A7
:100FF00037C004F038C005F039C006F03AC007F039
:101000003BC008F00A0E096E000E0A6E000E0B6E51
:10101000000E0C6E000E0D6E000E0E6E000E0F6EAA
:10102000000E106EF7EC09F001C028F002C029F0A4
:1010300003C02AF004C02BF005C02CF006C02DF030
:1010400007C02EF008C02FF02850300FDF6E30069A
:10105000D8A031063206D8A0330634C001F035C01E
:1010600002F036C003F037C004F038C005F039C0D4
:1010700006F03AC007F03BC008F00A0E096E000EF9
:101080000A6E000E0B6E000E0C6E000E0D6E000E42
:101090000E6E000E0F6E000E106E7FEC09F001C098
:1010A00034F002C035F003C036F004C037F005C09C
:1010B00038F006C039F007C03AF008C03BF03C50A9
:1010C0003D10D8B466EF08F068EF08F099EF08F02B
:1010D0003450351036103710381039103A103B1094
:1010E000D8A475EF08F077EF08F0E9EF07F031BE0C
:1010F00084EF08F0315006E13004D8B082EF08F0F8
:1011000084EF08F0E9EF07F033BE8FEF08F03350BB
:1011100008E13204D8A08FEF08F091EF08F099EFC2
:1011200008F0000190B397EF08F099EF08F0E9EFAD
:1011300007F01EC013F01FC014F0930E3C24156E70
:10114000000E3D20166E32C017F033C018F0C3EC0D
:101150000AF013C01EF014C01FF0120040C0D9FFE7
:1011600041C0DAFFDECFF6FFDDCFF7FF000EF86EED
:101170000800F550250AD8A4C0EF08F0C2EF08F027
:1011800061EF09F040C0D9FF41C0DAFFDE2A000E4E
:10119000DD22000E00018D6F000E8C6F8CC090F070
:1011A0008DC091F08E698F6940C0D9FF41C0DAFFD0
:1011B000DECFF6FFDDCFF7FF000EF86E0800F5502A
:1011C000750AD8A4E6EF08F0E8EF08F029EF09F077
:1011D00040C0D9FF41C0DAFFDE2A000EDD2242C046
:1011E000D9FF43C0DAFFDFCF44F0020EDE26DFCFA7
:1011F00045F0000EDD2244C0D9FF45C0DAFFDECF46
:1012000046F0DDCF47F046C048F047C049F04A6A93
:101210004B6A4C6A4D6A4E6A4F6A3EC01EF03FC030
:101220001FF048C020F049C021F04AC022F04BC056
:1012300023F04CC024F04DC025F04EC026F04FC026
:1012400027F0ADEC07F01EC03EF01FC03FF07EEF70
:1012500009F040C0D9FF41C0DAFFDECFF6FFDDCF95
:10126000F7FF000EF86E0800F550250AD8A43BEFF2
:1012700009F03DEF09F054EF09F040C0D9FF41C03B
:10128000DAFFDE2A000EDD22000E046E250E036E4C
:101290003EC005F03FC006F0CBEC0BF0000E3F6EF9
:1012A000010E3E6E7EEF09F040C0D9FF41C0DAFF6B
:1012B000DE2A000EDD22000E3F6E000E3E6E7EEF37
:1012C00009F040C0D9FF41C0DAFFDECFF6FFDDCF25
:1012D000F7FF000EF86E0800F550036E046A3EC07A
:1012E00005F03FC006F0CBEC0BF040C0D9FF41C089
:1012F000DAFFDE2A000EDD224EEF09F0120020EEAA
:1013000011F0070EDE6AE806FDE209500A100B1024
:101310000C100D100E100F101010D8B492EF09F031
:1013200094EF09F0E6EF09F0010E196EA2EF09F053
:10133000D89009360A360B360C360D360E360F3677
:101340001036192A10AEA7EF09F0A9EF09F098EFAF
:1013500009F0D89011361236133614361536163673
:10136000173618360950015C0A5002580B500358C2
:101370000C5004580D5005580E5006580F50075881
:1013800010500858D8A0C7EF09F0C9EF09F0DAEFFC
:1013900009F00950015E0A50025A0B50035A0C50D2
:1013A000045A0D50055A0E50065A0F50075A105045
:1013B000085A1180D89010320F320E320D320C3292
:1013C0000B320A320932192EA9EF09F011C001F0CF
:1013D00012C002F013C003F014C004F015C005F0F1
:1013E00016C006F017C007F018C008F01200095028
:1013F0000A100B100C100D100E100F101010D8B496
:1014000004EF0AF006EF0AF04EEF0AF0010E116E3B
:1014100014EF0AF0D89009360A360B360C360D3622
:101420000E360F361036112A10AE19EF0AF01BEFE8
:101430000AF00AEF0AF00950015C0A5002580B50FA
:1014400003580C5004580D5005580E5006580F50B4
:10145000075810500858D8A030EF0AF032EF0AF0C1
:1014600042EF0AF00950015E0A50025A0B50035A2B
:101470000C50045A0D50055A0E50065A0F50075A78
:101480001050085AD89010320F320E320D320C32F2
:101490000B320A320932112E1BEF0AF001C001F0A3
:1014A00002C002F003C003F004C004F005C005F060
:1014B00006C006F007C007F008C008F012001FECD5
:1014C00010F00009D8B467EF0AF069EF0AF0A6EF50
:1014D0000AF077EF0AF09DEC10F0C2EF0AF099ECF9
:1014E00010F0C2EF0AF091EC10F0C2EF0AF078C0F1
:1014F0000CF079C00DF020EE69F002D88AEF0AF006
:101500000500FA6EDE50FD6EDE50FE6EDE50FF6EA0
:10151000FA5012000E6E0F6A0F50000AD8B493EF03
:101520000AF073EF0AF00E50010AD8B473EF0AF014
:10153000030AD8B46BEF0AF0010AD8B46FEF0AF0CF
:10154000070AD8B473EF0AF073EF0AF0000189912B
:1015500083C0D9FF84C0DAFF834B842BDF50A1EC1A
:1015600010F000018507D8A0860785518611D8A400
:10157000BCEF0AF0BEEF0AF0C1EF0AF0060EC2EFB0
:101580000AF0030E1200000190A1C9EF0AF0CBEFA0
:101590000AF0D5EF0AF015C00CF016C00DF013C01C
:1015A0000EF014C00FF014EC0EF018BEDAEF0AF0D3
:1015B000DCEF0AF0E2EF0AF017C01CF018C01DF0D3
:1015C000E6EF0AF0000E1D6E000E1C6E000E1B6E84
:1015D000000E1A6EF8EF0AF0000E046E200E036E75
:1015E00013C005F014C006F0CBEC0BF01A4A1B2A0E
:1015F0001C501A5C1B50800A196E1D50800A195825
:10160000D8A005EF0BF007EF0BF0ECEF0AF00001AC
:1016100090B10DEF0BF00FEF0BF019EF0BF015C0C1
:101620000CF016C00DF013C00EF014C00FF014EC47
:101630000EF015C001F016C002F09CEC0EF01C502C
:101640000124136E1D500220146E1200B4EC10F031
:1016500083C0D9FF84C0DAFFDF6E0001834B842B87
:101660008507D8A0860785518611D8B43AEF0BF0CC
:101670003CEF0BF041EF0BF0A8EC10F0050E79EF0A
:101680000BF089874CEF0BF085EC10F079EF0BF045
:1016900089EC10F079EF0BF072C00CF073C00DF014
:1016A00002D85DEF0BF00500FA6E6051FD6E6151DE
:1016B000FE6E6251FF6EFA5012000E6E0F6A0F50EE
:1016C000000AD8B466EF0BF048EF0BF00E50010A99
:1016D000D8B448EF0BF0030AD8B444EF0BF0010A7A
:1016E000D8B444EF0BF0070AD8B448EF0BF048EF3A
:1016F0000BF01200016E010E026E000189B583EF3E
:101700000BF085EF0BF0C9EF0BF001C082F089936D
:10171000898589910E0E876F010E816FF40E806F9F
:101720008987740E606F210E616F000E626F000E6C
:10173000726F000E736F740E636F210E646F000E74
:10174000656F000E746F000E756F740E666F210E5C
:10175000676F000E686F000E766F000E776F740E65
:10176000696F210E6A6F000E6B6F000E786F000EAE
:10177000796F700E6C6F210E6D6F000E6E6F000E24
:101780007A6F000E7B6FB1EC10F0B2EC0FF0000E30
:10179000026E0250120005500610D8B4D2EF0BF0C2
:1017A000D4EF0BF0DDEF0BF005500610D8A4DBEF03
:1017B0000BF0DDEF0BF0E2EF0BF003507CEC10F0E0
:1017C00015EF0CF020EE09F00550D9260650DA226C
:1017D000DE50DE10D8B4EFEF0BF0F1EF0BF00CEFB2
:1017E0000CF020EE09F00550D9260650DA2210EE52
:1017F00003F00550E1260650E222DE50E65CE6509A
:10180000800A0B6EDE50800A0B58D8B00AEF0CF03D
:101810000CEF0CF015EF0CF020EE03F00550D9267C
:101820000650DA22DE2A000EDD221200000E866E3D
:10183000000E856E000E826E000E836E000E846EAA
:10184000070E8B6E8768BF0E886E8968FE0E8A6EE3
:10185000FD0E0F01216F1C69F90E146F070E296F21
:101860000C69000E206F000E286F000E136F000E23
:101870000B6F000E1B6F000E276F000E0A6F000E1D
:10188000126F000E1A6F000E1F6F09691169196936
:101890001E69070E266F0869106918691D690F0E09
:1018A000256F090E0E01B26F0F0EEB6F0B0EF06F6E
:1018B000100EEC6F0B0EFA6F190E886F0A0EB36FD5
:1018C0001200176E17507AEC0BF00009D8B46BEFCA
:1018D0000CF06DEF0CF062EF0CF02E0E076E1E0E8A
:1018E000086E000E096E180E0A6E000E0B6EE0EC0C
:1018F0000FF0120E016E000E026E000E046E010E4D
:10190000036EA0EC0FF0000E076E000E086E000EC6
:10191000096E000E0A6E000E0B6ED2EC0FF081EC19
:1019200010F077EC0FF0E806D8B499EF0CF09BEFCD
:101930000CF091EF0CF019C014F01850156E145003
:10194000126E15C013F01200066E01500210031043
:10195000D8B4ADEF0CF0AFEF0CF0CBEF0CF00650BD
:10196000030D600EF324D96E000EF420DA6E01C070
:10197000DEFF02C0DEFF03C0DEFF0650020D720E66
:10198000F324D96E000EF420DA6E04C0DEFF05C029
:10199000DDFFE5EF0CF00650030D600EF324D96E69
:1019A000000EF420DA6E740EDE6E210EDE6E000E76
:1019B000DE6E0650020D720EF324D96E000EF42076
:1019C000DA6E000EDE6E000EDD6E120000018987F9
:1019D000F7EF0CF095EC10F024EF0DF0A5EC10F003
:1019E000030E24EF0DF091EC10F024EF0DF072C017
:1019F0000CF073C00DF002D808EF0DF00500FA6E80
:101A00006051FD6E6151FE6E6251FF6EFA50120020
:101A10000E6E0F6A0F50000AD8B411EF0DF0F3EFFD
:101A20000CF00E50010AD8B4F3EF0CF0030AD8B44E
:101A3000EAEF0CF0010AD8B4EAEF0CF0070AD8B4C8
:101A4000EEEF0CF0F3EF0CF01200B1EC10F000012F
:101A500089A12DEF0DF02FEF0DF03CEF0DF01FECF5
:101A600010F00009D8B437EF0DF039EF0DF03CEF6E
:101A70000DF00F0E0001876F00018751030D010E5D
:101A8000F324F66E0F0EF420F76EF86A000EF822BB
:101A900002D858EF0DF00500FA6E0900F550FD6E02
:101AA0000900F550FE6E0900F550FF6EFA50120065
:101AB0000001876F120000018991020E886F69EFA3
:101AC0000DF095EC10F090EF0DF091EC10F090EF20
:101AD0000DF076C00CF077C00DF020EE66F002D865
:101AE0007CEF0DF00500FA6EDE50FD6EDE50FE6EEE
:101AF000DE50FF6EFA5012000E6E0F6A0F50000A91
:101B0000D8B485EF0DF065EF0DF00E50020AD8B491
:101B100061EF0DF0010AD8B461EF0DF065EF0DF043
:101B2000120052C056F053C057F0000E00018B6FE8
:101B3000000E8A6FAFEF0DF050C03EF051C03FF085
:101B4000560E406E000E416E54C042F055C043F038
:101B5000AEEC08F03E5000018A273F508B2356C060
:101B6000F6FF57C0F7FF000EF86E0800F5500009A9
:101B7000D8A4BDEF0DF0BFEF0DF09CEF0DF08AC0C3
:101B800050F08BC051F0120014EC10F0000E126EE9
:101B9000600E61EC0CF012C05EF013C05FF0310E0D
:101BA000586E0F0E596E5EC0BCF05FC0BDF0040EE3
:101BB0000001BE6FD890BD33BC33BE2FDAEF0DF0FD
:101BC000BCC05AF0BDC05BF08DEC0FF000F000F02F
:101BD00000F0C6EF0DF000EF00F0080E0E019A6F56
:101BE000900E986F240E996F190E966F000E976FD6
:101BF000000E016E000E026E000E036E5CEC10F023
:101C0000000E016E000E026E000E036E55EC10F019
:101C1000000E016E000E026E000E036E63EC10F0FB
:101C2000000E0001926F1200000E126E000E116E77
:101C300025EF0EF010C003F0046A0EC005F00FC0CF
:101C400006F0CBEC0BF0114A122A11500C24D96E7D
:101C500012500D20DA6EDF50106E1050D8A433EF02
:101C60000EF035EF0EF01AEF0EF01200106E010EAE
:101C7000116E000189B33FEF0EF041EF0EF056EF09
:101C80000EF08983000E116E1050D8B44AEF0EF09A
:101C90004CEF0EF050EF0EF0010E876F52EF0EF08A
:101CA000020E876FC0EC10F0C3EC0FF01150120061
:101CB00020EE02F00C50D9260D50DA22DECF01F0D2
:101CC000DDCF02F00CC0D9FF0DC0DAFFDECF03F08C
:101CD000DDCF04F0A0EC0FF0000E076E000E086ED2
:101CE000000E096E000E0A6E000E0B6EE0EC0FF097
:101CF000020E120020EE02F00C50D9260D50DA220E
:101D0000DECF01F0DDCF02F00CC0D9FF0DC0DAFF4D
:101D1000DECF03F0DDCF04F0A0EC0FF0000E076E75
:101D2000000E086E000E096E000E0A6E000E0B6E9D
:101D3000E0EC0FF0020E120001C003F002C004F04C
:101D4000A4EF0EF0014A022A01C0D9FF02C0DAFF57
:101D5000DF50D8A4AEEF0EF0B0EF0EF0A2EF0EF011
:101D60000350015C016E04500258026E12000CC058
:101D700001F00DC002F0000E046E010E036EA0EC27
:101D80000FF0000E076E000E086E000E096E000EBA
:101D90000A6E000E0B6EE0EC0FF0040E12000CC089
:101DA00001F00DC002F0000E046E020E036EA0ECF6
:101DB0000FF0000E076E000E086E000E096E000E8A
:101DC0000A6E000E0B6EE0EC0FF0020E12000CC05B
:101DD00001F00DC002F0000E046E010E036EA0ECC7
:101DE0000FF0000E076E000E086E000E096E000E5A
:101DF0000A6E000E0B6EE0EC0FF0020E12000CC02B
:101E000001F00DC002F0000E046E020E036EA0EC95
:101E10000FF0000E076E000E086E000E096E000E29
:101E20000A6E000E0B6EE0EC0FF0040E12000CC0F8
:101E300001F00DC002F0000E046E020E036EA0EC65
:101E40000FF0000E076E000E086E000E096E000EF9
:101E50000A6E000E0B6EE0EC0FF0020E12000CC0CA
:101E600001F00DC002F0000E046E010E036EA0EC36
:101E70000FF0000E076E000E086E000E096E000EC9
:101E80000A6E000E0B6EE0EC0FF0020E12000CC09A
:101E900001F00DC002F0000E046E010E036EA0EC06
:101EA0000FF0000E076E000E086E000E096E000E99
:101EB0000A6E000E0B6EE0EC0FF0040E12000CC068
:101EC00001F00DC002F0000E046E020E036EA0ECD5
:101ED0000FF0000E076E000E086E000E096E000E69
:101EE0000A6E000E0B6EE0EC0FF0040E1200010EF5
:101EF000016E000189B37FEF0FF081EF0FF08BEFE0
:101F00000FF089958269B1EC10F0AEEC10F0C2ECE4
:101F100010F088C001F0015012005A0E5C6E000EE5
:101F20005D6E000E506E000E516E58C052F059C0DA
:101F300053F05C0E546E000E556E91EC0DF01200D5
:101F4000000189A7A6EF0FF0A8EF0FF0B1EF0FF097
:101F500001C083F002C084F003C085F004C086F0A5
:101F60008997120095BAB7EF0FF0B9EF0FF0C2EFF3
:101F70000FF0000E946E080E956E000E966E030E16
:101F8000926E958A1200C9EF0FF03CEC10F025EC30
:101F90000DF0000189B3CFEF0FF0D1EF0FF0C5EFD7
:101FA0000FF0120007C001F008C002F009C003F0F2
:101FB0000AC004F00BC005F0020EA4EC0CF01200F5
:101FC00007C001F008C002F009C003F00AC004F025
:101FD0000BC005F0000EA4EC0CF01200000E0E0178
:101FE000DC6F000EDD6F000EDE6F000EDF6F000E87
:101FF000E06F000EE16F1200016E0E01C8AD03EF3D
:1020000010F005EF10F0FDEF0FF001C095FE12008B
:10201000620E0E01D36F000ED56F000ED76F020E49
:10202000D96F000ED86F1200EEEC0FF029EC10F013
:1020300016EC0CF008EC10F0EDEC0DF0120096BC74
:1020400024EF10F027EF10F0010E28EF10F0000E33
:102050001200000E946E080E956E000E966E030E22
:10206000926E959A120000EE60F0530EEE6AE8064A
:10207000FDE10001C4EF0DF00E01C8A142EF10F028
:1020800044EF10F03CEF10F0120000018981825102
:102090008225A1EC10F0030E120000018981D88086
:1020A0008235A1EC10F0050E120001C0B6F002C09E
:1020B000B7F003C0B8F0120001C0B9F002C0BAF026
:1020C00003C0BBF0120001C0B3F002C0B4F003C003
:1020D000B5F0120000018993000E886F0E0E1200F9
:1020E00000018991B6EC10F0040E120000018993F2
:1020F000000E886F0E0E1200026E0250FCEC0FF004
:102100001200000E36EC0EF01200ABEC10F0090ECF
:102110001200ABEC10F00A0E1200A8EC10F0050E45
:102120001200BCEC10F0000E1200BEEC10F0010E1C
:102130001200BEEC10F0020E1200BEEC10F0010E08
:102140001200016E01C091FF12000E01C881120041
:10215000969A96881200968A968812000E01C0916F
:1021600012000E01C89112009150120096861200C2
:10217000050E1200010E12009684120096821200C3
:0821800096801200959A1200EE
:020000040020DA
:10000000FFFFFFFFFFFFFFFFFFFFFFFFFFFFFFFF00
:10001000FFFFFFFFFFFFFFFFFFFFFFFFFFFFFFFFF0
:10002000FFFFFFFFFFFFFFFFFFFFFFFFFFFFFFFFE0
:10003000FFFFFFFFFFFFFFFFFFFFFFFFFFFFFFFFD0
:10004000FFFFFFFFFFFFFFFFFFFFFFFFFFFFFFFFC0
:10005000FFFFFFFFFFFFFFFFFFFFFFFFFFFFFFFFB0
:10006000FFFFFFFFFFFFFFFFFFFFFFFFFFFFFFFFA0
:10007000FFFFFFFFFFFFFFFFFFFFFFFFFFFFFFFF90
:10008000FFFFFFFFFFFFFFFFFFFFFFFFFFFFFFFF80
:10009000FFFFFFFFFFFFFFFFFFFFFFFFFFFFFFFF70
:1000A000FFFFFFFFFFFFFFFFFFFFFFFFFFFFFFFF60
:1000B000FFFFFFFFFFFFFFFFFFFFFFFFFFFFFFFF50
:1000C000FFFFFFFFFFFFFFFFFFFFFFFFFFFFFFFF40
:1000D000FFFFFFFFFFFFFFFFFFFFFFFFFFFFFFFF30
:1000E000FFFFFFFFFFFFFFFFFFFFFFFFFFFFFFFF20
:1000F000FFFFFFFFFFFFFFFFFFFFFFFFFFFFFFFF10
:020000040030CA
:0C000000ECFFFFFF9FFFFFFFFFFFFFFF73
:00000001FF
