:100000000C945F000C94B70F0C94800F0C94B70FF6
:100010000C94B70F0C94B70F0C94B70F0C94B70F48
:100020000C94B70F0C94B70F0C94B70F0C94B70F38
:100030000C94B70F0C94B70F0C94B70F0C94B70F28
:100040000C94B70F0C94B70F0C94B70F0C94B70F18
:100050000C94B70F0C94B70F0C94B70F0C94B70F08
:100060000C94B70F0C94B70F0C94B70F0C94B70FF8
:100070000C94B70F0C94B70F0C94B70F0C94B70FE8
:100080000C94B70F0C94B70F0C94B70F0C94B70FD8
:100090000C94B70F0C94B70F0C94B70F0C94B70FC8
:1000A000280028028028022826001F882826284A9F
:1000B00080284A285C001FAC285C285E8000112440
:1000C0001FBECFEFCDBFDFE3DEBFE0EAF0E040E0F0
:1000D00017C0B591A59135912591059107FD0CC0EB
:1000E00095918591EF01F92FE82F05900D92A217B8
:1000F000B307D9F7FE0104C01D92A217B307E1F7B9
:10010000ED3BF40731F70E944F0D0C94DB0EF89491
:02011000FFCF1F
:10011200AAE9B0E0EFE8F0E00C94680D6C017A0116
:10012200C756DF4F68837983C959D040A12CB12CBF
:1001320066246A94762C90E8492E512C25E2222ED0
:10014200C756DF4F68817981C959D040FB01808150
:10015200882309F471C3CF57DF4F18821982C1581F
:10016200D040CD57DF4F68827982C358D040CB57F9
:10017200DF4F18821982C558D04081E090E08C0F81
:100182009D1FC957DF4F88839983C758D040C757EF
:10019200DF4F48825982C958D040FB0100E010E08D
:1001A2008191811116C001151105C1F0A801C60186
:1001B2000E94190DC756DF4F88819981C959D040D5
:1001C200800F911FC756DF4F88839983C959D0404A
:1001D20005C0853241F30F5F1F4FE2CFC756DF4F95
:1001E200E881F981C959D0408081853209F012C372
:1001F2004F019FEF891A990AC756DF4F8882998269
:10020200C959D040C756DF4F88819981C959D0401A
:10021200DC012C912B3241F4CF57DF4F28813981F9
:10022200C158D04024600BC02C32BCF02D3249F5AD
:10023200CF57DF4F28813981C158D0402160CF5735
:10024200DF4F28833983C158D0400196C756DF4F0C
:1002520088839983C959D040D5CF203241F4CF57F2
:10026200DF4F28813981C158D0402860E8CF23323E
:1002720091F4CF57DF4F28813981C158D040206196
:10028200DECF203341F4CF57DF4F28813981C15867
:10029200D0402260D4CF2A3289F50196C756DF4F6B
:1002A20088839983C959D040D701ED91FC91119768
:1002B200CF0102968D939C9380819181CB57DF4F22
:1002C20088839983C558D04097FF35C0CF57DF4FF9
:1002D20028813981C158D040B1E02B27CF57DF4F59
:1002E20028833983C158D040919581959109CB5784
:1002F200DF4F88839983C558D0401DC00E949B0A56
:10030200CB57DF4F88839983C558D040C756DF4FFC
:10031200E881F981C959D0408081082E000C990BDF
:10032200C0970A9740F43196C756DF4FE883F983A6
:10033200C959D040EBCFCF57DF4F88819981C1583F
:10034200D04080FF07C08D7FCF57DF4F88839983CE
:10035200C158D040C756DF4FE881F981C959D04012
:1003620080818E3209F046C0CD57DF4F1882198244
:10037200C358D040CF010196C756DF4F8883998377
:10038200C959D04021812A32C1F43296C756DF4F73
:10039200E883F983C959D040D701ED91FC911197B7
:1003A200CF0102968D939C9380819181CD57DF4F2F
:1003B20088839983C358D0401DC00E949B0ACD57A1
:1003C200DF4F88839983C358D040C756DF4FE881F7
:1003D200F981C959D0408081082E000C990BC09731
:1003E2000A9740F43196C756DF4FE883F983C9591B
:1003F200D040EBCFCE0187569F4F0E949C0C382EE7
:10040200C756DF4FE881F981C959D0408081082E53
:10041200000C990B0E94360F8936910509F456C0DB
:10042200B4F48336910509F46BC144F48532910525
:1004320009F4A2C18136910529F1B4C1843691052E
:1004420009F444C0883691050CF436C1ABC180373B
:10045200910509F4C4C04CF48E36910509F420C10B
:100462008F36910509F47AC09DC18537910509F44B
:1004720051C08837910509F495C08337910509F079
:1004820091C15DC1632D70E0A701CE0185579F4FD9
:100492000E94BC0C892B09F4B0C1C756DF4FE8811A
:1004A200F981C959D040CF010196C756DF4F8883E1
:1004B2009983C959D0402081AE0145575F4FBE0193
:1004C2006F577F4FC6010E94B10F94C1632D70E038
:1004D200970141E050E0CE0185579F4F0E942206CE
:1004E200892B09F48AC1C756DF4F88819981C9597E
:1004F200D0400196C756DF4F88839983C959D040AF
:10050200AE0145575F4FBE016F577F4FC6010E9434
:10051200630570C1632D70E0970140E050E0CE01A9
:1005220085579F4F0E942206892B09F466C1C75640
:10053200DF4F88819981C959D0400196C756DF4F54
:1005420088839983C959D040AE0145575F4FBE0198
:100552006F577F4FC6010E94CA084CC1632D70E0DD
:10056200970140E050E0CE0185579F4F0E9422063E
:10057200892B09F442C1C756DF4F88819981C95935
:10058200D0400196C756DF4F88839983C959D0401E
:10059200AE0145575F4FBE016F577F4FC6010E94A4
:1005A200610828C1632D70E0970140E050E0CE0160
:1005B20085579F4F0E942206892B09F41EC1C756F8
:1005C200DF4FE881F981C959D040CF010196C75662
:1005D200DF4F88839983C959D040208157C0970142
:1005E20040E050E060EF70E0CE0185579F4F0E94DF
:1005F2002206892B09F401C1C756DF4F88819981F0
:10060200C959D0400196C756DF4F88839983C9598B
:10061200D04086E0E8E6FFE5DE01AD56BF4F01902F
:100622000D928A95E1F7C557DF4F2881CB58D0400C
:10063200C457DF4F3881CC58D040C357DF4F488171
:10064200CD58D040C257DF4F5881CE58D040C15705
:10065200DF4F6881CF58D040C057DF4F7881C059F3
:10066200D040CF56DF4F8881C159D040CE56DF4FA0
:100672009881C259D040A0E00E94B90E31F420E026
:1006820030E0AE014D565F4FAFC028E7AE0145578F
:100692005F4FBE016F577F4FC6010E942304AAC05D
:1006A200632D70E09701A501400F511FCE018557C0
:1006B2009F4F0E94F507A1C0632D70E0A701CE01F4
:1006C20085579F4F0E94BC0C892B09F496C0C756D0
:1006D200DF4FE881F981C959D040CF010196C75651
:1006E200DF4F88839983C959D0402081AE01455795
:1006F2005F4FBE016F577F4FC6010E94B10F7AC094
:10070200B0E83B127AC0C756DF4F88819981C95938
:10071200D0400196C756DF4F88839983C959D0408C
:10072200D701ED91FC911197CF0102968D939C9385
:100732008081C557DF4F8883CB58D04050C0B0E886
:100742003B125BC0C756DF4F88819981C959D0409F
:100752000196C756DF4F88839983C959D040D70184
:10076200ED91FC911197CF0102968D939C9340815C
:10077200518120E030E038C0B0E83B123EC0C7569D
:10078200DF4F88819981C959D0400196C756DF4F02
:1007920088839983C959D040C557DF4F2882CB58E7
:1007A200D0401DC0C557DF4F2882CB58D040C75616
:1007B200DF4F88829982C959D040CF57DF4F1882C4
:1007C2001982C158D040CB57DF4F18821982C558C1
:1007D200D040CD57DF4F68827982C358D04021E0A4
:1007E20030E0AE0145575F4FBE016F577F4FC601E4
:1007F2000E94770B800F911F0EC0C756DF4F888172
:100802009981C959D0400196C756DF4F8883998391
:10081200C959D040C8018501080F191F0A151B05C7
:100822004CF48FE490E080930028909301288FEF9E
:100832009FEF03C0580184CCC501C656DF4FE2E1E9
:040842000C94C90D3C
:10084600A4E1B0E0E9E2F4E00C94680D8F839887A8
:1008560069837A834B8B5C8B122FDB011296ED91A9
:10086600FC91139714962D913C9115972D833E83F9
:10087600CD90DC90119716962D903C901797F7FD2A
:1008860003C0E894C1F802C0E1E0F0E0C60180715F
:10089600992789879A87C4FE1FC0AB89BC892C918A
:1008A60011963C91119712964C91129713965C9162
:1008B600139714966C91149715967C911597169626
:1008C6008C91169717969C91A0E00E94B90E21F084
:1008D6008D819E81029702C08D819E81960128702E
:1008E60033272B873C87C3FC0197AB89BC894C9087
:1008F60011965C90119712966C90129713967C90B5
:10090600139714968C90149715969C901597169697
:10091600AC9016971796BC90A981BA811896ED905F
:10092600FC901997B1E0EB1AF108D101AE0DBF1D8D
:100936001C928B839C839F01281B390B2D873E8736
:10094600C601827099278F87988B812F012E000C04
:10095600990BDC01A154B109A98BBA8B32E0E316DD
:10096600F10434F489859A85892B09F04CC073C04B
:100976009201A301B401C501A0E00E94B90E81F164
:10098600B1E0EB1AF108C2018F7099278A30910500
:1009960014F4C09602C0895A9F4FE989FA897A975A
:1009A60048F49C012062215631092A31310510F4A0
:1009B6000E94150FF101EE0DFF1D80832B813C81F6
:1009C600215031092B833C839201A301B401C50157
:1009D60004E00E94FD0C29013A014B015C01BECFE7
:1009E6008D859E85AB81BC818A0F9B1F18161906C3
:1009F6003CF21A161B060CF0B5CFEF85F889EF2BE3
:100A060009F0BECFAFCFAB89BC892C9111963C9132
:100A1600119712964C91129713965C911397149610
:100A26006C91149715967C91159716968C9116973E
:100A360017969C91A0E00E94B90E69F0F101EE0DA7
:100A4600FF1D31971083B2E0EB1AF108F101EE0DAC
:100A5600FF1D80E38083EB85FC85EF2B41F0F1E001
:100A6600EF1AF108F101EE0DFF1D80E28083A981E6
:100A7600BA8118964D915C911997415051094E19BA
:100A86005F09B1016E0D7F1D86012D813E818F812B
:100A960098850E9421099C01EF81F88580819181CA
:100AA60090FF09C0A981BA8112968D919C911397E6
:100AB600821793070CF4C9016496E2E10C94C90D00
:100AC600ADE0B0E0E9E6F5E00C94680D89879A8719
:100AD6006B837C83FA01DB011296CD90DC90139731
:100AE60014968D919C9115978D839E83ED90FC9025
:100AF6001197E982FA8216960D90BC91A02DAF83CC
:100B0600B8872080318042805380648075808680DB
:100B160097808101B42DF52DE62D7B868C869D86EA
:100B26009101A201B301C401A0E00E94B90E4CF4E8
:100B36000E94290E8901B42FF52FE62F7B878C871B
:100B46009D87D7FC04C0E894E1F8E982FA82910116
:100B5600A201B301C401A0E0ED80FE800E94B90E9F
:100B66001CF0898182FF04C081E0E81AF10805C003
:100B760083FF03C091E0E91AF108CE0101965C01FA
:100B86008AE0C82ED12C2B2F3F2F4E2F5B856C85EC
:100B96007D858B819C810E94DB06FC019101A2016F
:100BA600B301C401A0E00E94B90E1CF0898182FF46
:100BB60012C031970F8118850E0F1F1F9101A201D8
:100BC600B301C401A0E00E94B90E14F08BE201C08B
:100BD6008DE2D80108C083FF07C03197AF81B88581
:100BE600AE0FBF1F80E28C9309811A81AB81BC8155
:100BF60018964D915C911997415051094E1B5F0B08
:100C06006F8178856E0F7F1F2D813E8189859A853C
:100C16000E9421099C01E985FA858081918190FFD6
:100C260009C0AB81BC8112968D919C911397821756
:0E0C360093070CF4C9012D96E2E10C94C90D50
:100C44000F931F93CF93DF93FC01D901683871058B
:100C540031F194F461387105B1F12CF46038710507
:100C640009F478C09FC06238710509F459C064382A
:100C7400710509F46FC096C0603A710509F448C063
:100C84002CF46039710509F44BC08CC0603C7105CB
:100C940009F476C0603F710509F472C083C0CD9138
:100CA400DC911197CE0102968D939C93452B39F0DC
:100CB4009881892F880F880B908381835BC08881FA
:100CC4008083118268C0CD91DC911197CE01049686
:100CD4008D939C93452B99F088819981AA81BB813E
:100CE400AC01BD01770F440B542FBA01808391836B
:100CF400A283B383448345834683478328C0088102
:100D040019812A813B81008311832283338345C067
:100D1400CD91DC911197CE0102968D939C9323C0C3
:100D2400CD91DC911197CE0108968D939C93788197
:100D340069815A814B813C812D819E818F81708391
:100D4400618352834383348325839683878381E03D
:100D540090E02AC0CD91DC911197CE0102968D933B
:100D64009C93452BA1F099812881892F880F880BAA
:100D74002083918382838383848385838683E6CFE0
:100D8400CD91DC911197CE0102968D939C930881AD
:100D940019810083118312821382148215821682B0
:100DA4001782D5CF80E090E0DF91CF911F910F9112
:020DB4000895A0
:100DB600A2E1B0E0E1EEF6E00C94680DFC010A8BCE
:100DC6001B832C83732E642E552E462E7D83CC8654
:100DD600D886AE82BF82868197818A879B87D50116
:100DE6004D915C91228133818085918501971C010B
:100DF60037FF02C021E030E0EA85FB85E80FF91FE6
:100E060010824701E1E0F0E0E983FA83C9018E1917
:100E16009F098D879E87DA01A270BB27AF87B88BA3
:100E2600B885BB0FBB0BB98B1214130474F0A981E0
:100E3600BA81AB2B09F05CC0AE81BF818D919C91CC
:100E460011978F7E8D939C9353C02A893B814C8149
:100E5600572D662D752D842D9D81A0E00E94B90E1B
:100E6600B1F1E1E02E1A3108FC85F987AF2EB8847E
:100E7600C988DC2CEC2CFC2C0C2D1C2D2A893B81E2
:100E86004C81572D662D752D842D9D810E94550E02
:100E9600C90129839A83EA85FB85E20DF31D805DEE
:100EA600808381E0881A91082A893B814C81572DDD
:100EB600662D752D842D9D810E94570E2A8B3B83AE
:100EC6004C83752E662E572E482E9D83ADCF8D856D
:100ED6009E85880D991D181619061CF218141904FA
:100EE6000CF0A5CFEF85F889EF2B09F0BACF9FCF8D
:0A0EF600C1016296E2E10C94C90DFF
:100F0000CF93DF930E940C0B40E054E0FA01108273
:100F100020E234E089E0F901808380E494E0FC0180
:100F20001082C0E6D4E01882A0E8B4E01C9260EA27
:100F300074E0FB011082FA011482F9011482FC01B1
:100F400014821C8214961C921497FB011482FA01DD
:100F5000108A118A128A138A148A158A168A178AA5
:100F6000F901108A118A128A138A148A158A168A3C
:100F7000178AFC01108A118A128A138A148A158A28
:100F8000168A178A188A198A1A8A1B8A1C8A1D8A45
:100F90001E8A1F8A50961C92509751961C92519708
:100FA00052961C92529753961C92539754961C92A9
:100FB000549755961C92559756961C92569757964D
:100FC0001C92FB01108A118A128A138A148A158ACC
:100FD000168A178AE0EEF5E01182108214821582DB
:0A0FE00013821282DF91CF91089571
:100FEA00CF93DF93DC01F90164387105D9F164F418
:100FFA006138710521F16238710509F440C0603821
:10100A00710509F054C02EC060397105C1F184F42C
:10101A006838710509F04BC0C081D181CE010296B2
:10102A0080839183E881F981ED93FC9340833CC0EE
:10103A00603A7105B9F0603C7105A1F038C0C08111
:10104A00D181CE01029680839183E881F981ED9363
:10105A00FC93052E000C660B770B40835183628349
:10106A00738322C0C081D181CE010296808391838D
:10107A00E881F981ED93FC934083518315C0C081C7
:10108A00D181CE01029680839183E881F981ED9323
:10109A00FC9340835183852F880F880B8283838337
:1010AA00848385838683878381E090E002C080E021
:0810BA0090E0DF91CF91089551
:1010C200A2E0B0E0E7E6F8E00C94680D1C014B01E9
:1010D200FA01DB0112962D913C91139714964D90D3
:1010E2005C9015978D919C91119789839A8316969E
:1010F2006D907C90179737FD03C08D7F89839A830B
:1011020000811181228133814481558166817781F9
:10111200FE0131965F0188E0C82ED12C7201C40114
:101122000E94DB06298124FF06C00197F301E80F24
:10113200F91F20E32083298123FF06C00197F301D1
:10114200E80FF91F20E2208309811A81D401189641
:101152004D915C91199741505109481B590BB301AC
:10116200680F791F9201C1010E9421099C01F101BE
:101172008081918190FF08C0D40112968D919C913B
:101182001397821793070CF4C9012296E2E10C949B
:02119200C90D85
:10119400A2E0B0E0E0EDF8E00C94680D3C014B01F6
:1011A400FA01DB0112962D913C91139714964D9000
:1011B4005C9015978D919C91119789839A831696CB
:1011C4002D903C90179737FD03C08D7F89839A83B8
:1011D4000081118122813381448155816681778127
:1011E400FE0131965F018AE0C82ED12C7201C40140
:1011F4000E94DB0609811A81D40118964D915C91F5
:10120400199741505109481B590BB101680F791FB7
:101214009201C3010E9421099C01F3018081918103
:1012240090FF08C0D40112968D919C911397821758
:0E12340093070CF4C9012296E2E10C94C90D57
:10124200A0E1B0E0E7E2F9E00C946A0D5C013B0139
:101252006A017901280181E04822552400FD14C069
:10126200421753078CF487010C191D094801A80184
:101272000131110510F040E150E060E270E0CE0172
:1012820001960E940C0F0AC0A601B301C5010E947B
:10129200190DCE14DF043CF3C60120C00031110544
:1012A20058F040E150E0BE016F5F7F4FC5010E94E0
:1012B200190D00511109F2CFA4014F705527BE013B
:1012C2006F5F7F4FC5010E94190D4114510429F42B
:1012D200A601B301C5010E94190DC7016096E0E1A4
:0412E2000C94CB0D90
:1012E60088249924F401E401B0E49F93AA279A156F
:1012F6008B049C04ED05FE05CF05D007A10798F4E5
:10130600AD2FDC2FCF2FFE2FE92D982C892E982F6D
:10131600872F762F652F542F432F322F2227B85031
:1013260031F7BF9127C01B2EBF91BB27220F331F5A
:10133600441F551F661F771F881F991F881C991CFD
:10134600EE1FFF1FCC1FDD1FAA1FBB1F8A149B04A5
:10135600EC05FD05CE05DF05A007B10748F08A18A4
:101366009B08EC09FD09CE09DF09A00BB10B216032
:101376001A94E1F62EF49401AF01BE01CD01000CE2
:021386000895C8
:10138800E9E4F8E280818E7F8083809145289091FE
:101398004628019719F40E947A0F02C00E94740F20
:1013A800E6E2F8E2878D90A10197878F90A3892BB9
:1013B80071F0A58DB68D8091A8088C93858D968D3A
:1013C8000196858F968F0E94620F84E00895A6E2A9
:1013D800B8E25D96ED91FC915E978091A8088083B4
:1013E8005D968D919C915E9701965D968D939C93E9
:1013F8005E97E9E4F8E2808188608083ED91FC9152
:1014080011971C968D919C911D9709958250823059
:1014180020F40E947A0F88E008950E94700E0895C3
:101428000F931F93CF93DF93DB012D913C9111977D
:1014380030FF25C016964D915C91179714962D9103
:101448003C9115974217530778F41296ED91FC9149
:101458001397808312962D913C9113972F5F3F4FDE
:1014680012962D933C93139716962D913C911797AE
:101478002F5F3F4F16962D933C93179715C01C96D8
:10148800ED91FC911D97309719F48FEF9FEF0CC0E9
:101498008B01EC010995892BC1F7F80186819781A9
:1014A800019686839783CE01DF91CF911F910F918B
:0214B800089595
:1014BA000E94860F8823C9F0A6E2B8E21696ED913B
:1014CA00FC91179752968D919C915397099582306A
:1014DA0019F0833021F006C00E94630E08950E941D
:1014EA00890E08950E94D00E0895E9E4F8E28081F9
:1014FA0088608083A6E2B8E2ED91FC9111971C9670
:10150A008D919C911D970995833039F0843041F073
:10151A00823049F40E94630E08950E94890E08954C
:0C152A000E94D40A08950E94D00E08957B
:10153600AC01FA0190814F5F5F4F9032D1F3292FB2
:10154600092E000C330B295031092530310588F35B
:101556009B3209F540E050E0319602C040E050E091
:1015660080E090E06AE02191022E000C330B2053BC
:1015760031092A30310548F4689FD001699FB00DC2
:101586001124CD01821B930BEECF452B49F4919587
:101596008195910908959D3209F741E050E0DCCF2D
:0215A6000895A6
:1015A8000E94860F8823C9F0A6E2B8E21696ED914C
:1015B800FC91179752968D919C915397099582307B
:1015C80019F0833021F006C00E94630E08950E942E
:1015D800890E08950E94D00E0895E9E4F8E280810A
:1015E8008E7F8083E6E2F8E2A58DB68DCD01019667
:1015F800858F968F8C918093A808878D90A10197ED
:10160800878F90A3892B11F485E0089583E00895CE
:10161800E0E9F4E0808188608193E83984E0F807A4
:10162800C9F7E0EBF4E0808188608193E83B84E0CF
:10163800F807C9F7E0E1F4E0808188608193E83138
:1016480084E0F807C9F7E0E3F4E0808188608193DB
:10165800E83384E0F807C9F7E0E5F4E080818860C2
:101668008193E83584E0F807C9F7E0E7F4E0808182
:0E16780088608193E83784E0F807C9F7089589
:101686009091492892FD2EC0E6E2F8E2848FA9E403
:10169600B8E2892F887F9EE091A324EF31E0228F64
:1016A600338F846088608C9389EB9FE0808391837D
:1016B600148615868283938316861786848395837C
:1016C600108A118A86839783128A138A8BEB9FE08E
:1016D60080879187148A158A0E94FA0E0E94500FFD
:0816E60080E0089581E0089501
:1016EE00A7E0B0E0EDE7FBE00C946E0D5C017A0133
:1016FE00C90127E0E8E4FFE5DE01119601900D92A5
:10170E002A95E1F7FB01C280D38084809580008109
:10171E001181452B21F49E012F5F3F4F79010097D8
:10172E0019F4C7010E94470ED7FC04C0C816D9068B
:10173E0008F4C6019401AC01B701C5010E9421094C
:08174E002796ECE00C94CF0D8E
:101756001F93CF93DF9300D00F92CDB7DEB7182F2C
:101766006B83812F0E94430B8823D9F3BE016F5FE1
:101776007F4F8DE79EE00E943E0F61E070E0CE0154
:1017860003960E94070E60E070E08DEB9FE00E94DA
:10179600440F0E94900F0E94560C8130E1F389811C
:1017A6009A819827892798272396CDBFDEBFDF9198
:0617B600CF911F91089580
:1017BC00CF93DF930E94500F8091492880FF07C080
:1017CC000E94860F882319F08FE0809347280E948F
:1017DC005C0F882319F080E1809347280E94560FF4
:1017EC00882319F081E180934728C6E2D8E2E9A169
:1017FC00F0E0EE0FFF1FEE5FF74D0190F081E02D52
:0A180C00099589A3DF91CF9108959B
:1018160040E068ED88E790E00E94A00F40E068EDA8
:101826008CE790E00E94A00F40E068ED80E790E032
:101836000E94A00F41E168ED81E690E00E94A00FB2
:1018460040E068ED80E690E00E94A00F40E068ED81
:0C18560082E690E00E94A00F80E0089560
:101862006115710581F090E0FC01EE0FFF1FEA5D4A
:10187200F74D60837183880F991FFC01EE5CF74D71
:1018820040835183089590E0FC01EE0FFF1FEA5D53
:10189200F74D29EB3FE020833183880F991FFC012C
:0A18A200EE5CF74D108211820895EC
:1018AC00CF93DF930E94560F882341F0E9E4F8E2CE
:1018BC0080818D7F808382E08093482880914928A5
:1018CC0081FD0EC0E9E4F8E28B7F8083C6E2D8E2AA
:1018DC008FEF8C8F0E94500F0E944A0F8AA101C07B
:0818EC0081E0DF91CF91089526
:1018F400E9E4F8E280818E7F8083A6E2B8E282E0A8
:1019040092968C9392971496ED91FC91159750961C
:101914008D919C9151970995823019F0833021F073
:1019240006C00E94630E08950E94890E08950E94C5
:04193400D00E089534
:10193800CF93DF93EC0190E0E92FF0E0EE0FFF1F6B
:10194800E453F24A8081811102C081810EC0A881CE
:10195800B9812C91821305C091811196A883B9830E
:1019680001C09F5F9B3040F3892FDF91CF9108958D
:10197800FA0160387105CCF0623871051CF06338E3
:10198800710599F4A081B1819D012C5F3F4F20839F
:1019980031834D915D916D917C91FC014083518320
:1019A8006283738381E090E0089580E090E0089579
:1019B8000E94680FA6E2B8E282E092968C93929712
:1019C8001296ED91FC9113971E968D919C911F97FD
:1019D8000995823019F0833021F006C00E94630E09
:0E19E80008950E94890E08950E94C50E08956C
:1019F60097FB10F8169400080F93083098F00850DB
:101A0600232F342F452F562F672F782F892F902D70
:101A1600F4CF05949795879577956795579547954C
:0C1A2600379527950A95AAF70F910895AF
:101A3200A0E0B0E0EFE1FDE00C94720D6C01EB016F
:101A42008A017B01E40EF51ECE15DF0541F0899176
:101A5200B601082E000C990B0E94140AF5CFC8019A
:0A1A6200CDB7DEB7E8E00C94D30D19
:101A6C009091492891FD13C0E9E4F8E292609083CB
:101A7C00882321F081E08093472803C082E0809383
:101A8C0047280E94DE0B0E94F50D80E0089581E04E
:021A9C000895AB
:101A9E000E94180EC2ECDBE560E080E60E94AB0B04
:101AAE00929582958F7089279F7089279F938F9328
:101ABE00DF93CF930E94990D0F900F900F900F9080
:021ACE00EBCF5C
:101AD0002F923F924F925F926F927F928F929F923E
:101AE000AF92BF92CF92DF92EF92FF920F931F932C
:101AF000CF93DF93CDB7DEB7CA1BDB0BCDBFDEBF05
:021B0000099446
:101B0200E0E6F8E08DE695E080879187158280EC2B
:101B1200868383E087831386148616861586E09172
:101B22005A28F0915B288AE498E280839183089591
:101B3200A0E0B0E0EFE9FDE00C94780DAE014B5F60
:101B42005F4FFA0161917191AF01E0915A28F091D2
:101B52005B28808191810E94B10DE2E00C94D90D45
:101B6200A2E0B0E0E7EBFDE00C94760D8C01498336
:101B72005A83AE014F5F5F4F0E948900F8012081B6
:101B820024FF02C08FEF9FEF2296E4E00C94D70D62
:101B92002A88398848885F846E847D848C849B84FB
:101BA200AA84B984C884DF80EE80FD800C811B8109
:101BB200AA81B981CE0FD11DCDBFDEBFED0108953F
:101BC2000A53656E736F722074656D702072656161
:101BD20064696E67202843656C73697573293A20BE
:081BE2002575202020202000C1
:101BEA00CF93DF938091492881FF09C0C9E4D8E2E5
:101BFA000E94030F0E94DE0B888181FDF9CFDF91DD
:041C0A00CF910895D9
:101C0E009C019091492893FF0BC0E6E2F8E2258FE4
:101C1E00368F678F70A3E9E4F8E2892F877F808380
:021C2E00089517
:101C30000E9480070E94AD0E0E942E0F0E940B0C86
:101C40000E94260F0E94810D0E94390E0E94A10E53
:021C50000895F5
:101C52006095709580959095309540955095219519
:101C62003F4F4F4F5F4F6F4F7F4F8F4F9F4F0895A3
:101C7200E0EAF8E0108212828BE0868381E08383BF
:0C1C8200158217821482108680E00895FD
:101C8E00FC01AF014F5F5F4F2081222311F0FA015B
:0C1C9E00F8CF9F01281B390BC9010895E5
:101CAA00689401C0E8948F929F92CF93DF930E9429
:0C1CBA007309DF91CF919F908F900895E7
:101CC600E9E4F8E280818160808380914228880F70
:0A1CD60081608093A70884E0089560
:101CE0000E947A0F0E946E0FE9E4F8E280818D7FF6
:0A1CF00080831092482880E00895D8
:101CFA0062E070E00E94070E60E070E080E090E031
:081D0A000E943E0F82E00895E3
:101D1200E9E4F8E280818160808380914228880F23
:081D22008093A70883E00895F7
:101D2A000E94FA0EE9E4F8E280818D7F808382E0E6
:081D3A00809348288EE0089513
:101D420040E068ED80E191E00E94A00FE0E1F1E067
:081D52001282138280E0089563
:101D5A0040E068ED80E890E00E94A00FE0E8F0E043
:081D6A001186108680E0089547
:101D72000024A7FD00942A17300540055005600590
:081D820070058005900508952D
:101D8A000E94FA0EE9E4F8E280818D7F8083109246
:061D9A0048288EE00895C8
:101DA0000E946E0FE9E4F8E280818D7F80831092BB
:061DB000482880E00895C0
:101DB600EC010E94C20F0E94C10FCE010E94C30F08
:061DC600CE010E94BF0FD8
:101DCC0068076C094C836A9074A07AC0008068889C
:061DDC0000846C8200810E
:101DE200E9E4F8E280818D7F80831092482880E0C8
:021DF200089552
:101DF400E0EAF8E08481886084838581816085835A
:021E040008953F
:101E0600E0EAF8E0858188231CF0858186FFFACF19
:021E160008952D
:101E1800FC01480F591FE417F50711F06193FBCF38
:021E280008951B
:101E2A009C01215631092A31310510F48F75992701
:021E3A00089509
:101E3C00E0E6F8E0948195FFFDCF80936208089569
:101E4C0040E068ED80E590E00E94A00F80E00895EE
:101E5C0040E068ED80E091E00E94A00F80E00895E2
:101E6C009C01215431092A31310508F4806208950E
:0C1E7C00AB01BC0180E00E94310C089515
:0C1E8800AB01BC0182E00E94310C089507
:0C1E9400E0EAF8E083818F7383830895F7
:0C1EA000E0EAF8E08581806C85830895FD
:0C1EAC008091A50882FB882780F908952A
:0C1EB8008091A50883FB882780F908951D
:0C1EC400E0EAF8E08481826084830895E5
:0C1ED000E0EAF8E08581886085830895D1
:0C1EDC00E0EAF8E08481836084830895CC
:0C1EE800E0EAF8E084818B7F8483089599
:0C1EF400E0EAF8E08481846084830895B3
:0C1F00008F9381E080938A008F911895E8
:0A1F0C008091A50882958170089568
:0A1F16000E941E0F80E090E0089585
:081F200080E00E94360D0895D7
:081F28000E94740F83E008958C
:081F30000E94740F84E0089583
:081F38000E947A0F88E0089571
:081F4000FC0164BF4083089519
:071F4800286E756C6C290086
:061F50000E94630E0895DB
:061F56000E94630E0895D5
:061F5C000E94890E0895A9
:061F620080E090E008950C
:061F6800286E696C2900DF
:041F6E000C940000CF
:041F720081E008956D
:041F760085E0089565
:041F7A0083E0089563
:041F7E000E94870036
:021F82000895C0
:021F84000895BE
:021F86000895BC
:101F8800F10E630E890ED40AC4095D0AAB0FAE0FB9
:101F9800A80FD00E980F940F700E9C0FC50E7A0CD8
:041FA800DC0C950EAA
:101FAC000300000000000000000000008B0F000088
:021FBC005C289F
:02000004008278
:090000000000020000C00700002E
:00000001FF
